{
  "_format": "hh-sol-artifact-1",
  "contractName": "AgentEscrow",
  "sourceName": "contracts/AgentEscrow.sol",
  "abi": [
    {
      "inputs": [],
      "stateMutability": "nonpayable",
      "type": "constructor"
    },
    {
      "inputs": [],
      "name": "AccessControlBadConfirmation",
      "type": "error"
    },
    {
      "inputs": [
        {
          "internalType": "address",
          "name": "account",
          "type": "address"
        },
        {
          "internalType": "bytes32",
          "name": "neededRole",
          "type": "bytes32"
        }
      ],
      "name": "AccessControlUnauthorizedAccount",
      "type": "error"
    },
    {
      "inputs": [
        {
          "internalType": "address",
          "name": "target",
          "type": "address"
        }
      ],
      "name": "AddressEmptyCode",
      "type": "error"
    },
    {
      "inputs": [
        {
          "internalType": "address",
          "name": "implementation",
          "type": "address"
        }
      ],
      "name": "ERC1967InvalidImplementation",
      "type": "error"
    },
    {
      "inputs": [],
      "name": "ERC1967NonPayable",
      "type": "error"
    },
    {
      "inputs": [],
      "name": "EnforcedPause",
      "type": "error"
    },
    {
      "inputs": [],
      "name": "ExpectedPause",
      "type": "error"
    },
    {
      "inputs": [],
      "name": "FailedCall",
      "type": "error"
    },
    {
      "inputs": [],
      "name": "InvalidInitialization",
      "type": "error"
    },
    {
      "inputs": [],
      "name": "NotInitializing",
      "type": "error"
    },
    {
      "inputs": [],
      "name": "ReentrancyGuardReentrantCall",
      "type": "error"
    },
    {
      "inputs": [],
      "name": "UUPSUnauthorizedCallContext",
      "type": "error"
    },
    {
      "inputs": [
        {
          "internalType": "bytes32",
          "name": "slot",
          "type": "bytes32"
        }
      ],
      "name": "UUPSUnsupportedProxiableUUID",
      "type": "error"
    },
    {
      "anonymous": false,
      "inputs": [
        {
          "indexed": false,
          "internalType": "uint64",
          "name": "version",
          "type": "uint64"
        }
      ],
      "name": "Initialized",
      "type": "event"
    },
    {
      "anonymous": false,
      "inputs": [
        {
          "indexed": true,
          "internalType": "uint256",
          "name": "jobId",
          "type": "uint256"
        }
      ],
      "name": "JobCompleted",
      "type": "event"
    },
    {
      "anonymous": false,
      "inputs": [
        {
          "indexed": true,
          "internalType": "uint256",
          "name": "jobId",
          "type": "uint256"
        },
        {
          "indexed": true,
          "internalType": "address",
          "name": "employer",
          "type": "address"
        },
        {
          "indexed": true,
          "internalType": "address",
          "name": "agentWallet",
          "type": "address"
        },
        {
          "indexed": false,
          "internalType": "uint256",
          "name": "amount",
          "type": "uint256"
        }
      ],
      "name": "JobCreated",
      "type": "event"
    },
    {
      "anonymous": false,
      "inputs": [
        {
          "indexed": true,
          "internalType": "uint256",
          "name": "jobId",
          "type": "uint256"
        }
      ],
      "name": "JobRefunded",
      "type": "event"
    },
    {
      "anonymous": false,
      "inputs": [
        {
          "indexed": false,
          "internalType": "address",
          "name": "account",
          "type": "address"
        }
      ],
      "name": "Paused",
      "type": "event"
    },
    {
      "anonymous": false,
      "inputs": [
        {
          "indexed": true,
          "internalType": "bytes32",
          "name": "role",
          "type": "bytes32"
        },
        {
          "indexed": true,
          "internalType": "bytes32",
          "name": "previousAdminRole",
          "type": "bytes32"
        },
        {
          "indexed": true,
          "internalType": "bytes32",
          "name": "newAdminRole",
          "type": "bytes32"
        }
      ],
      "name": "RoleAdminChanged",
      "type": "event"
    },
    {
      "anonymous": false,
      "inputs": [
        {
          "indexed": true,
          "internalType": "bytes32",
          "name": "role",
          "type": "bytes32"
        },
        {
          "indexed": true,
          "internalType": "address",
          "name": "account",
          "type": "address"
        },
        {
          "indexed": true,
          "internalType": "address",
          "name": "sender",
          "type": "address"
        }
      ],
      "name": "RoleGranted",
      "type": "event"
    },
    {
      "anonymous": false,
      "inputs": [
        {
          "indexed": true,
          "internalType": "bytes32",
          "name": "role",
          "type": "bytes32"
        },
        {
          "indexed": true,
          "internalType": "address",
          "name": "account",
          "type": "address"
        },
        {
          "indexed": true,
          "internalType": "address",
          "name": "sender",
          "type": "address"
        }
      ],
      "name": "RoleRevoked",
      "type": "event"
    },
    {
      "anonymous": false,
      "inputs": [
        {
          "indexed": false,
          "internalType": "address",
          "name": "account",
          "type": "address"
        }
      ],
      "name": "Unpaused",
      "type": "event"
    },
    {
      "anonymous": false,
      "inputs": [
        {
          "indexed": true,
          "internalType": "address",
          "name": "implementation",
          "type": "address"
        }
      ],
      "name": "Upgraded",
      "type": "event"
    },
    {
      "inputs": [],
      "name": "DEFAULT_ADMIN_ROLE",
      "outputs": [
        {
          "internalType": "bytes32",
          "name": "",
          "type": "bytes32"
        }
      ],
      "stateMutability": "view",
      "type": "function"
    },
    {
      "inputs": [],
      "name": "ESCROW_MANAGER_ROLE",
      "outputs": [
        {
          "internalType": "bytes32",
          "name": "",
          "type": "bytes32"
        }
      ],
      "stateMutability": "view",
      "type": "function"
    },
    {
      "inputs": [],
      "name": "PAUSER_ROLE",
      "outputs": [
        {
          "internalType": "bytes32",
          "name": "",
          "type": "bytes32"
        }
      ],
      "stateMutability": "view",
      "type": "function"
    },
    {
      "inputs": [],
      "name": "UPGRADER_ROLE",
      "outputs": [
        {
          "internalType": "bytes32",
          "name": "",
          "type": "bytes32"
        }
      ],
      "stateMutability": "view",
      "type": "function"
    },
    {
      "inputs": [],
      "name": "UPGRADE_INTERFACE_VERSION",
      "outputs": [
        {
          "internalType": "string",
          "name": "",
          "type": "string"
        }
      ],
      "stateMutability": "view",
      "type": "function"
    },
    {
      "inputs": [],
      "name": "acceptedToken",
      "outputs": [
        {
          "internalType": "contract IERC20",
          "name": "",
          "type": "address"
        }
      ],
      "stateMutability": "view",
      "type": "function"
    },
    {
      "inputs": [
        {
          "internalType": "uint256",
          "name": "jobId",
          "type": "uint256"
        }
      ],
      "name": "completeJob",
      "outputs": [],
      "stateMutability": "nonpayable",
      "type": "function"
    },
    {
      "inputs": [
        {
          "internalType": "address",
          "name": "agentWallet",
          "type": "address"
        },
        {
          "internalType": "uint256",
          "name": "amount",
          "type": "uint256"
        }
      ],
      "name": "createJob",
      "outputs": [],
      "stateMutability": "nonpayable",
      "type": "function"
    },
    {
      "inputs": [
        {
          "internalType": "bytes32",
          "name": "role",
          "type": "bytes32"
        }
      ],
      "name": "getRoleAdmin",
      "outputs": [
        {
          "internalType": "bytes32",
          "name": "",
          "type": "bytes32"
        }
      ],
      "stateMutability": "view",
      "type": "function"
    },
    {
      "inputs": [
        {
          "internalType": "bytes32",
          "name": "role",
          "type": "bytes32"
        },
        {
          "internalType": "address",
          "name": "account",
          "type": "address"
        }
      ],
      "name": "grantRole",
      "outputs": [],
      "stateMutability": "nonpayable",
      "type": "function"
    },
    {
      "inputs": [
        {
          "internalType": "bytes32",
          "name": "role",
          "type": "bytes32"
        },
        {
          "internalType": "address",
          "name": "account",
          "type": "address"
        }
      ],
      "name": "hasRole",
      "outputs": [
        {
          "internalType": "bool",
          "name": "",
          "type": "bool"
        }
      ],
      "stateMutability": "view",
      "type": "function"
    },
    {
      "inputs": [
        {
          "internalType": "address",
          "name": "_acceptedToken",
          "type": "address"
        },
        {
          "internalType": "address",
          "name": "defaultAdmin",
          "type": "address"
        }
      ],
      "name": "initialize",
      "outputs": [],
      "stateMutability": "nonpayable",
      "type": "function"
    },
    {
      "inputs": [
        {
          "internalType": "uint256",
          "name": "",
          "type": "uint256"
        }
      ],
      "name": "jobs",
      "outputs": [
        {
          "internalType": "address",
          "name": "employer",
          "type": "address"
        },
        {
          "internalType": "address",
          "name": "agentWallet",
          "type": "address"
        },
        {
          "internalType": "uint256",
          "name": "amount",
          "type": "uint256"
        },
        {
          "internalType": "bool",
          "name": "isCompleted",
          "type": "bool"
        },
        {
          "internalType": "bool",
          "name": "isRefunded",
          "type": "bool"
        }
      ],
      "stateMutability": "view",
      "type": "function"
    },
    {
      "inputs": [],
      "name": "nextJobId",
      "outputs": [
        {
          "internalType": "uint256",
          "name": "",
          "type": "uint256"
        }
      ],
      "stateMutability": "view",
      "type": "function"
    },
    {
      "inputs": [],
      "name": "pause",
      "outputs": [],
      "stateMutability": "nonpayable",
      "type": "function"
    },
    {
      "inputs": [],
      "name": "paused",
      "outputs": [
        {
          "internalType": "bool",
          "name": "",
          "type": "bool"
        }
      ],
      "stateMutability": "view",
      "type": "function"
    },
    {
      "inputs": [],
      "name": "proxiableUUID",
      "outputs": [
        {
          "internalType": "bytes32",
          "name": "",
          "type": "bytes32"
        }
      ],
      "stateMutability": "view",
      "type": "function"
    },
    {
      "inputs": [
        {
          "internalType": "uint256",
          "name": "jobId",
          "type": "uint256"
        }
      ],
      "name": "refundJob",
      "outputs": [],
      "stateMutability": "nonpayable",
      "type": "function"
    },
    {
      "inputs": [
        {
          "internalType": "bytes32",
          "name": "role",
          "type": "bytes32"
        },
        {
          "internalType": "address",
          "name": "callerConfirmation",
          "type": "address"
        }
      ],
      "name": "renounceRole",
      "outputs": [],
      "stateMutability": "nonpayable",
      "type": "function"
    },
    {
      "inputs": [
        {
          "internalType": "bytes32",
          "name": "role",
          "type": "bytes32"
        },
        {
          "internalType": "address",
          "name": "account",
          "type": "address"
        }
      ],
      "name": "revokeRole",
      "outputs": [],
      "stateMutability": "nonpayable",
      "type": "function"
    },
    {
      "inputs": [
        {
          "internalType": "bytes4",
          "name": "interfaceId",
          "type": "bytes4"
        }
      ],
      "name": "supportsInterface",
      "outputs": [
        {
          "internalType": "bool",
          "name": "",
          "type": "bool"
        }
      ],
      "stateMutability": "view",
      "type": "function"
    },
    {
      "inputs": [],
      "name": "unpause",
      "outputs": [],
      "stateMutability": "nonpayable",
      "type": "function"
    },
    {
      "inputs": [
        {
          "internalType": "address",
          "name": "newImplementation",
          "type": "address"
        },
        {
          "internalType": "bytes",
          "name": "data",
          "type": "bytes"
        }
      ],
      "name": "upgradeToAndCall",
      "outputs": [],
      "stateMutability": "payable",
      "type": "function"
    }
  ],
  "bytecode": "0x60a060405230608052348015610013575f80fd5b5061001c610021565b6100d3565b7ff0c57e16840df040f15088dc2f81fe391c3923bec73e23a9662efc9c229c6a00805468010000000000000000900460ff16156100715760405163f92ee8a960e01b815260040160405180910390fd5b80546001600160401b03908116146100d05780546001600160401b0319166001600160401b0390811782556040519081527fc7f505b2f371ae2175ee4913f4499e1f2633a7b5936321eed1cdaeb6115181d29060200160405180910390a15b50565b60805161178e6100f95f395f8181610f9b01528181610fc40152611125015261178e5ff3fe60806040526004361061013c575f3560e01c806352d1902d116100b3578063ad3cb1cc1161006d578063ad3cb1cc146103c9578063b0c2aa5e14610406578063c38a337f1461041b578063d547741f1461043b578063e63ab1e91461045a578063f72c0d8b1461047a575f80fd5b806352d1902d1461032d5780635c975abb146103415780638456cb591461036457806391d1485414610378578063a1c0d32f14610397578063a217fddf146103b6575f80fd5b806336568abe1161010457806336568abe146102735780633f2a66f8146102925780633f4ba83a146102b1578063451c3d80146102c5578063485cc955146102fb5780634f1ef2861461031a575f80fd5b806301ffc9a714610140578063180aedf314610174578063248a9ca3146102065780632d5d0aae146102335780632f2ff15d14610254575b5f80fd5b34801561014b575f80fd5b5061015f61015a36600461143f565b6104ad565b60405190151581526020015b60405180910390f35b34801561017f575f80fd5b506101cf61018e36600461146d565b600160208190525f918252604090912080549181015460028201546003909201546001600160a01b0393841693909116919060ff8082169161010090041685565b604080516001600160a01b03968716815295909416602086015292840191909152151560608301521515608082015260a00161016b565b348015610211575f80fd5b5061022561022036600461146d565b6104e3565b60405190815260200161016b565b34801561023e575f80fd5b5061025261024d36600461146d565b610503565b005b34801561025f575f80fd5b5061025261026e36600461149f565b6106dd565b34801561027e575f80fd5b5061025261028d36600461149f565b6106ff565b34801561029d575f80fd5b506102526102ac3660046114c9565b610737565b3480156102bc575f80fd5b5061025261092c565b3480156102d0575f80fd5b505f546102e3906001600160a01b031681565b6040516001600160a01b03909116815260200161016b565b348015610306575f80fd5b506102526103153660046114f1565b61094b565b61025261032836600461152d565b610acc565b348015610338575f80fd5b50610225610ae7565b34801561034c575f80fd5b505f805160206117398339815191525460ff1661015f565b34801561036f575f80fd5b50610252610b02565b348015610383575f80fd5b5061015f61039236600461149f565b610b21565b3480156103a2575f80fd5b506102526103b136600461146d565b610b57565b3480156103c1575f80fd5b506102255f81565b3480156103d4575f80fd5b506103f9604051806040016040528060058152602001640352e302e360dc1b81525081565b60405161016b91906115e9565b348015610411575f80fd5b5061022560025481565b348015610426575f80fd5b506102255f8051602061171983398151915281565b348015610446575f80fd5b5061025261045536600461149f565b610d29565b348015610465575f80fd5b506102255f805160206116d983398151915281565b348015610485575f80fd5b506102257f189ab7a9244df0848122154315af71fe140f3db0fe014031783b0946b8c9d2e381565b5f6001600160e01b03198216637965db0b60e01b14806104dd57506301ffc9a760e01b6001600160e01b03198316145b92915050565b5f9081525f805160206116f9833981519152602052604090206001015490565b61050b610d45565b610513610d7c565b5f818152600160205260409020600381015460ff1615801561053f57506003810154610100900460ff16155b6105875760405162461bcd60e51b8152602060048201526014602482015273129bd888185b1c9958591e481c995cdbdb1d995960621b60448201526064015b60405180910390fd5b60018101546001600160a01b03163314806105b457506105b45f8051602061171983398151915233610b21565b6106005760405162461bcd60e51b815260206004820152601c60248201527f4e6f7420617574686f72697a656420746f20726566756e64206a6f6200000000604482015260640161057e565b60038101805461ff0019166101001790555f548154600283015460405163a9059cbb60e01b81526001600160a01b039283166004820152602481019190915291169063a9059cbb906044016020604051808303815f875af1158015610667573d5f803e3d5ffd5b505050506040513d601f19601f8201168201806040525081019061068b9190611635565b6106a75760405162461bcd60e51b815260040161057e90611654565b60405182907f125feb9329fec66f38e904b4bd76509026d4aa18455b61f6f2aaac7042d52f8c905f90a2506106da610dac565b50565b6106e6826104e3565b6106ef81610dd6565b6106f98383610de0565b50505050565b6001600160a01b03811633146107285760405163334bd91960e11b815260040160405180910390fd5b6107328282610e88565b505050565b61073f610d45565b610747610d7c565b5f81116107965760405162461bcd60e51b815260206004820181905260248201527f416d6f756e74206d7573742062652067726561746572207468616e207a65726f604482015260640161057e565b5f546040516323b872dd60e01b8152336004820152306024820152604481018390526001600160a01b03909116906323b872dd906064016020604051808303815f875af11580156107e9573d5f803e3d5ffd5b505050506040513d601f19601f8201168201806040525081019061080d9190611635565b6108295760405162461bcd60e51b815260040161057e90611654565b600280545f91826108398361167d565b909155506040805160a081018252338082526001600160a01b0387811660208085018281528587018a81525f60608801818152608089018281528b8352600195869052918a9020985189549088166001600160a01b0319918216178a559351948901805495909716949093169390931790945592516002860155915160039094018054925115156101000261ff00199515159590951661ffff199093169290921793909317905591519293509183907f8f4ee83cefe0dfb2f73fe6057bfa5b233fc43358bbb5f5606f444cbd4c5c4f8c906109179087815260200190565b60405180910390a450610928610dac565b5050565b5f805160206116d983398151915261094381610dd6565b6106da610f01565b5f610954610f60565b805490915060ff600160401b820416159067ffffffffffffffff165f8115801561097b5750825b90505f8267ffffffffffffffff1660011480156109975750303b155b9050811580156109a5575080155b156109c35760405163f92ee8a960e01b815260040160405180910390fd5b845467ffffffffffffffff1916600117855583156109ed57845460ff60401b1916600160401b1785555b6109f5610f88565b6109fd610f88565b5f80546001600160a01b0319166001600160a01b038916178155610a219087610de0565b50610a395f8051602061171983398151915287610de0565b50610a515f805160206116d983398151915287610de0565b50610a7c7f189ab7a9244df0848122154315af71fe140f3db0fe014031783b0946b8c9d2e387610de0565b508315610ac357845460ff60401b19168555604051600181527fc7f505b2f371ae2175ee4913f4499e1f2633a7b5936321eed1cdaeb6115181d29060200160405180910390a15b50505050505050565b610ad4610f90565b610add82611034565b610928828261105e565b5f610af061111a565b505f805160206116b983398151915290565b5f805160206116d9833981519152610b1981610dd6565b6106da611163565b5f9182525f805160206116f9833981519152602090815260408084206001600160a01b0393909316845291905290205460ff1690565b610b5f610d45565b610b67610d7c565b5f818152600160205260409020600381015460ff16158015610b9357506003810154610100900460ff16155b610bd65760405162461bcd60e51b8152602060048201526014602482015273129bd888185b1c9958591e481c995cdbdb1d995960621b604482015260640161057e565b80546001600160a01b0316331480610c005750610c005f8051602061171983398151915233610b21565b610c4c5760405162461bcd60e51b815260206004820152601e60248201527f4e6f7420617574686f72697a656420746f20636f6d706c657465206a6f620000604482015260640161057e565b60038101805460ff191660019081179091555f5490820154600283015460405163a9059cbb60e01b81526001600160a01b039283166004820152602481019190915291169063a9059cbb906044016020604051808303815f875af1158015610cb6573d5f803e3d5ffd5b505050506040513d601f19601f82011682018060405250810190610cda9190611635565b610cf65760405162461bcd60e51b815260040161057e90611654565b60405182907f02244c8529cb95e213ee542e76e7776342b3dabd10203d01472bbf4441be8929905f90a2506106da610dac565b610d32826104e3565b610d3b81610dd6565b6106f98383610e88565b610d4d6111ab565b610d7a60017f9b779b17422d0df92223018b32b4d1fa46e071723d6817e2486d003becc55f005b906111eb565b565b5f805160206117398339815191525460ff1615610d7a5760405163d93c066560e01b815260040160405180910390fd5b610d7a5f7f9b779b17422d0df92223018b32b4d1fa46e071723d6817e2486d003becc55f00610d74565b6106da81336111f2565b5f5f805160206116f9833981519152610df98484610b21565b610e78575f848152602082815260408083206001600160a01b03871684529091529020805460ff19166001179055610e2e3390565b6001600160a01b0316836001600160a01b0316857f2f8788117e7eff1d82e926ec794901d17c78024a50270940304540a733656f0d60405160405180910390a460019150506104dd565b5f9150506104dd565b5092915050565b5f5f805160206116f9833981519152610ea18484610b21565b15610e78575f848152602082815260408083206001600160a01b0387168085529252808320805460ff1916905551339287917ff6391f5c32d9c69d2a47ea670b442974b53935d1edc7fd64eb21e047a839171b9190a460019150506104dd565b610f0961122b565b5f80516020611739833981519152805460ff191681557f5db9ee0a495bf2e6ff9c91a7834c1ba4fdd244a5e8aa4e537bd38aeae4b073aa335b6040516001600160a01b03909116815260200160405180910390a150565b5f807ff0c57e16840df040f15088dc2f81fe391c3923bec73e23a9662efc9c229c6a006104dd565b610d7a61125a565b306001600160a01b037f000000000000000000000000000000000000000000000000000000000000000016148061101657507f00000000000000000000000000000000000000000000000000000000000000006001600160a01b031661100a5f805160206116b9833981519152546001600160a01b031690565b6001600160a01b031614155b15610d7a5760405163703e46dd60e11b815260040160405180910390fd5b7f189ab7a9244df0848122154315af71fe140f3db0fe014031783b0946b8c9d2e361092881610dd6565b816001600160a01b03166352d1902d6040518163ffffffff1660e01b8152600401602060405180830381865afa9250505080156110b8575060408051601f3d908101601f191682019092526110b5918101906116a1565b60015b6110e057604051634c9c8ce360e01b81526001600160a01b038316600482015260240161057e565b5f805160206116b9833981519152811461111057604051632a87526960e21b81526004810182905260240161057e565b610732838361127f565b306001600160a01b037f00000000000000000000000000000000000000000000000000000000000000001614610d7a5760405163703e46dd60e11b815260040160405180910390fd5b61116b610d7c565b5f80516020611739833981519152805460ff191660011781557f62e78cea01bee320cd4e420270b5ea74000d11b0c9f74754ebdbfc544b05a25833610f42565b7f9b779b17422d0df92223018b32b4d1fa46e071723d6817e2486d003becc55f005c15610d7a57604051633ee5aeb560e01b815260040160405180910390fd5b80825d5050565b6111fc8282610b21565b6109285760405163e2517d3f60e01b81526001600160a01b03821660048201526024810183905260440161057e565b5f805160206117398339815191525460ff16610d7a57604051638dfc202b60e01b815260040160405180910390fd5b6112626112d4565b610d7a57604051631afcd79f60e31b815260040160405180910390fd5b611288826112ed565b6040516001600160a01b038316907fbc7cd75a20ee27fd9adebab32041f755214dbc6bffa90cc0225b39da2e5c2d3b905f90a28051156112cc576107328282611350565b6109286113e9565b5f6112dd610f60565b54600160401b900460ff16919050565b806001600160a01b03163b5f0361132257604051634c9c8ce360e01b81526001600160a01b038216600482015260240161057e565b5f805160206116b983398151915280546001600160a01b0319166001600160a01b0392909216919091179055565b60605f61135d8484611408565b905080801561137e57505f3d118061137e57505f846001600160a01b03163b115b156113935761138b61141b565b9150506104dd565b80156113bd57604051639996b31560e01b81526001600160a01b038516600482015260240161057e565b3d156113d0576113cb611434565b610e81565b60405163d6bda27560e01b815260040160405180910390fd5b3415610d7a5760405163b398979f60e01b815260040160405180910390fd5b5f805f835160208501865af49392505050565b6040513d81523d5f602083013e3d602001810160405290565b6040513d5f823e3d81fd5b5f6020828403121561144f575f80fd5b81356001600160e01b031981168114611466575f80fd5b9392505050565b5f6020828403121561147d575f80fd5b5035919050565b80356001600160a01b038116811461149a575f80fd5b919050565b5f80604083850312156114b0575f80fd5b823591506114c060208401611484565b90509250929050565b5f80604083850312156114da575f80fd5b6114e383611484565b946020939093013593505050565b5f8060408385031215611502575f80fd5b61150b83611484565b91506114c060208401611484565b634e487b7160e01b5f52604160045260245ffd5b5f806040838503121561153e575f80fd5b61154783611484565b9150602083013567ffffffffffffffff80821115611563575f80fd5b818501915085601f830112611576575f80fd5b81358181111561158857611588611519565b604051601f8201601f19908116603f011681019083821181831017156115b0576115b0611519565b816040528281528860208487010111156115c8575f80fd5b826020860160208301375f6020848301015280955050505050509250929050565b5f602080835283518060208501525f5b81811015611615578581018301518582016040015282016115f9565b505f604082860101526040601f19601f8301168501019250505092915050565b5f60208284031215611645575f80fd5b81518015158114611466575f80fd5b6020808252600f908201526e151c985b9cd9995c8819985a5b1959608a1b604082015260600190565b5f6001820161169a57634e487b7160e01b5f52601160045260245ffd5b5060010190565b5f602082840312156116b1575f80fd5b505191905056fe360894a13ba1a3210667c828492db98dca3e2076cc3735a920a3ca505d382bbc65d7a28e3265b37a6474929f336521b332c1681b933f6cb9f3376673440d862a02dd7bc7dec4dceedda775e58dd541e08a116c6c53815c0bd028192f7b6268003b2a61e18f61be1272a467c8cbf17c05fd965ec69fdf24c3f07f078a6071aeeacd5ed15c6e187e77e9aee88184c21f4f2182ab5827cb3b7e07fbedcd63f03300a2646970667358221220bc937c824914d20ac0eaa369613b5d0d47b58427f74c379b5d7d85b9223b1ad964736f6c63430008180033",
  "linkReferences": {},
  "deployedLinkReferences": {}
}